:020000040000fa
:080000000002040000000000f2
:020000040000fa
:0400080012030000df
:020000040000fa
:04000c005403000099
:020000040000fa
:04001000b403000035
:020000040000fa
:0400140032030000b3
:020000040000fa
:04001800740300006d
:020000040000fa
:04001c009403000049
:020000040000fa
:04002000d403000005
:020000040000fa
:040024005e04000076
:020000040000fa
:040028005e04000072
:020000040000fa
:04002c005e0400006e
:020000040000fa
:040030005e0400006a
:020000040000fa
:0400340020040000a4
:020000040000fa
:040038005e04000062
:020000040000fa
:04003c005e0400005e
:020000040000fa
:040040005e0400005a
:020000040000fa
:040044005e04000056
:020000040000fa
:040048005e04000052
:020000040000fa
:04004c005e0400004e
:020000040000fa
:040050005e0400004a
:020000040000fa
:040054005e04000046
:020000040000fa
:040058005e04000042
:020000040000fa
:04005c005e0400003e
:020000040000fa
:040060005e0400003a
:020000040000fa
:040064005e04000036
:020000040000fa
:040068005e04000032
:020000040000fa
:04006c005e0400002e
:020000040000fa
:040070005e0400002a
:020000040000fa
:040074005e04000026
:020000040000fa
:040078005e04000022
:020000040000fa
:04007c005e0400001e
:020000040000fa
:040080005e0400001a
:020000040000fa
:040084005e04000016
:020000040000fa
:040088005e04000012
:020000040000fa
:04008c005e0400000e
:020000040000fa
:040090005e0400000a
:020000040000fa
:040094005e04000006
:020000040000fa
:040098005e04000002
:020000040000fa
:04009c005e040000fe
:020000040000fa
:0400a0005e040000fa
:020000040000fa
:0400a4005e040000f6
:020000040000fa
:0400a8005e040000f2
:020000040000fa
:0400ac005e040000ee
:020000040000fa
:0400b0005e040000ea
:020000040000fa
:0400b4005e040000e6
:020000040000fa
:0400b8005e040000e2
:020000040000fa
:0400bc005e040000de
:020000040000fa
:0400c0005e040000da
:020000040000fa
:0400c4005e040000d6
:020000040000fa
:0400c8005e040000d2
:020000040000fa
:0400cc005e040000ce
:020000040000fa
:0400d0005e040000ca
:020000040000fa
:0400d4005e040000c6
:020000040000fa
:0400d8005e040000c2
:020000040000fa
:0400dc005e040000be
:020000040000fa
:0400e0005e040000ba
:020000040000fa
:0400e4005e040000b6
:020000040000fa
:0400e8005e040000b2
:020000040000fa
:0400ec005e040000ae
:020000040000fa
:0400f0005e040000aa
:020000040000fa
:0400f4005e040000a6
:020000040000fa
:0400f8005e040000a2
:020000040000fa
:0400fc005e0400009e
:020000040000fa
:040100005e04000099
:020000040000fa
:040104005e04000095
:020000040000fa
:040108005e04000091
:020000040000fa
:04010c005e0400008d
:020000040000fa
:040110005e04000089
:020000040000fa
:040114005e04000085
:020000040000fa
:040118005e04000081
:020000040000fa
:04011c005e0400007d
:020000040000fa
:040120005e04000079
:020000040000fa
:040124005e04000075
:020000040000fa
:040128005e04000071
:020000040000fa
:04012c005e0400006d
:020000040000fa
:040130005e04000069
:020000040000fa
:040134005e04000065
:020000040000fa
:040138005e04000061
:020000040000fa
:04013c005e0400005d
:020000040000fa
:040140005e04000059
:020000040000fa
:040144005e04000055
:020000040000fa
:040148005e04000051
:020000040000fa
:04014c005e0400004d
:020000040000fa
:040150005e04000049
:020000040000fa
:040154005e04000045
:020000040000fa
:040158005e04000041
:020000040000fa
:04015c005e0400003d
:020000040000fa
:040160005e04000039
:020000040000fa
:040164005e04000035
:020000040000fa
:040168005e04000031
:020000040000fa
:04016c005e0400002d
:020000040000fa
:040170005e04000029
:020000040000fa
:040174005e04000025
:020000040000fa
:040178005e04000021
:020000040000fa
:04017c005e0400001d
:020000040000fa
:040180005e04000019
:020000040000fa
:040184005e04000015
:020000040000fa
:040188005e04000011
:020000040000fa
:04018c005e0400000d
:020000040000fa
:040190005e04000009
:020000040000fa
:040194005e04000005
:020000040000fa
:040198005e04000001
:020000040000fa
:04019c005e040000fd
:020000040000fa
:0401a0005e040000f9
:020000040000fa
:0401a4005e040000f5
:020000040000fa
:0401a8005e040000f1
:020000040000fa
:0401ac005e040000ed
:020000040000fa
:0401b0005e040000e9
:020000040000fa
:0401b4005e040000e5
:020000040000fa
:0401b8005e040000e1
:020000040000fa
:0401bc005e040000dd
:020000040000fa
:0401c0005e040000d9
:020000040000fa
:0401c4005e040000d5
:020000040000fa
:0401c8005e040000d1
:020000040000fa
:0401cc005e040000cd
:020000040000fa
:0401d0005e040000c9
:020000040000fa
:0401d4005e040000c5
:020000040000fa
:0401d8005e040000c1
:020000040000fa
:0401dc005e040000bd
:020000040000fa
:0401e0005e040000b9
:020000040000fa
:0401e4005e040000b5
:020000040000fa
:0401e8005e040000b1
:020000040000fa
:0401ec005e040000ad
:020000040000fa
:0401f0005e040000a9
:020000040000fa
:0401f4005e040000a5
:020000040000fa
:0401f8005e040000a1
:020000040000fa
:0401fc005e0400009d
:020000040000fa
:040200005e04000098
:020000040000fa
:040204005e04000094
:020000040000fa
:040208005e04000090
:020000040000fa
:04020c005e0400008c
:020000040000fa
:040210005e04000088
:020000040000fa
:040214005e04000084
:020000040000fa
:040218005e04000080
:020000040000fa
:04021c005e0400007c
:020000040000fa
:040220005e04000078
:020000040000fa
:040224005e04000074
:020000040000fa
:040228005e04000070
:020000040000fa
:04022c005e0400006c
:020000040000fa
:040230005e04000068
:020000040000fa
:040234005e04000064
:020000040000fa
:040238005e04000060
:020000040000fa
:04023c005e0400005c
:020000040000fa
:040240005e04000058
:020000040000fa
:040244005e04000054
:020000040000fa
:040248005e04000050
:020000040000fa
:04024c005e0400004c
:020000040000fa
:040250005e04000048
:020000040000fa
:040254005e04000044
:020000040000fa
:040258005e04000040
:020000040000fa
:04025c005e0400003c
:020000040000fa
:040260005e04000038
:020000040000fa
:040264005e04000034
:020000040000fa
:040268005e04000030
:020000040000fa
:04026c005e0400002c
:020000040000fa
:040270005e04000028
:020000040000fa
:040274005e04000024
:020000040000fa
:040278005e04000020
:020000040000fa
:04027c005e0400001c
:020000040000fa
:040280005e04000018
:020000040000fa
:040284005e04000014
:020000040000fa
:040288005e04000010
:020000040000fa
:04028c005e0400000c
:020000040000fa
:040290005e04000008
:020000040000fa
:040294005e04000004
:020000040000fa
:040298005e04000000
:020000040000fa
:04029c005e040000fc
:020000040000fa
:0402a0005e040000f8
:020000040000fa
:0402a4005e040000f4
:020000040000fa
:0402a8005e040000f0
:020000040000fa
:0402ac005e040000ec
:020000040000fa
:0402b0005e040000e8
:020000040000fa
:0402b4005e040000e4
:020000040000fa
:0402b8005e040000e0
:020000040000fa
:0402bc005e040000dc
:020000040000fa
:0402c0005e040000d8
:020000040000fa
:0402c4005e040000d4
:020000040000fa
:0402c8005e040000d0
:020000040000fa
:0402cc005e040000cc
:020000040000fa
:0402d0005e040000c8
:020000040000fa
:0402d4005e040000c4
:020000040000fa
:0402d8005e040000c0
:020000040000fa
:0402dc005e040000bc
:020000040000fa
:0402e0005e040000b8
:020000040000fa
:0402e4005e040000b4
:020000040000fa
:0402e8005e040000b0
:020000040000fa
:0402ec005e040000ac
:020000040000fa
:0402f0005e040000a8
:020000040000fa
:0402f4005e040000a4
:020000040000fa
:0402f8005e040000a0
:020000040000fa
:0402fc005e0400009c
:020000040000fa
:040300005e04000097
:020000040000fa
:040304005e04000093
:020000040000fa
:040308005e0400008f
:020000040000fa
:04030c005e0400008b
:020000040000fa
:040310005e04000087
:020000040000fa
:100400006f8422000eff24000e018800000000000f
:10041000000020000000e000020032000001200087
:1004200020028800140007009b0107000000e00084
:1004300003003a00402223000100200002003700a0
:100440000000200001002000810f70000100320038
:100450000f000700000020000000e0000200320052
:100460000000020000000000543e020000000000f6
:100470000040da000000fe00200920000000e0003b
:1004800002003200002020009001880000000600d9
:10049000a1028800800478000000eb001f003700f4
:1004a000e284440054a0b4009905ba00e2844400f8
:1004b00054a0b4009906ba00e284440054a0b400e9
:1004c0000006eb00476fde00fd07b200ae018800ba
:1004d000636ce10003003a000ad801000000eb0061
:1004e0000e003700606ce10008003a00004deb00a0
:1004f0000a05e800020039003420ec000af0a000f0
:100500008b05e900f9ff3e00040037006168e10057
:10051000010032000086eb000b00070019c7ba008b
:100520000e04e0001905ba0003003a000a00e000da
:10053000dbff3a0000000600fe07b200ae028800b2
:100540008a047800f5ff37000cd0a300e20f4d00bd
:100550001c00390089027800354dba000a05e80010
:10056000020039003420ec000af0a0008b05e900fd
:100570000f003200254dba000a05e80002003900dc
:100580003420ec000af0a0008b05e90008003200de
:100590000c00e0000600320015cdba000a05e800a4
:1005a000020039003420ec000af0a0008b05e900bd
:1005b0008984e80054a0b4000b00e000e2ff3a0098
:1005c000000006009902ba00055d78008b05e9007d
:1005d000f7ff3200c82ade00055d78008b05e900d0
:1005e000f3ff32000c00e000f1ff320019ddba0029
:1005f000eeff3700683b040000000000de06040048
:1006000000000000f80604000000000026070400b7
:1006100000000000ea1104000000000000000400d7
:10062000000000003600f800809fbe00829fbe00e0
:10063000849fbe00869fbe000000fa00c028a9006b
:100640000000eb00d21d07000080fa004f03be003f
:100650004f02be004f01be004f00be003600f90041
:10066000004006003600f800809fbe00829fbe005a
:10067000849fbe00869fbe000000fa00c91d0700cf
:10068000c048a90010002000c11d07000080fa002a
:100690004f03be004f02be004f01be004f00be0020
:1006a0003600f900004006003600f800809fbe00ca
:1006b000829fbe00849fbe00869fbe000000fa009d
:1006c000c068a90020002000b11d07000080fa00ca
:1006d0004f03be004f02be004f01be004f00be00e0
:1006e0003600f900004006003600f800809fbe008a
:1006f000829fbe00849fbe00869fbe000000fa005d
:10070000c088a90030002000a11d07000080fa0069
:100710004f03be004f02be004f01be004f00be009f
:100720003600f900004006003600f800809fbe0049
:10073000829fbe00849fbe00869fbe000000fa001c
:10074000c0a8a90040002000911d07000080fa0009
:100750004f03be004f02be004f01be004f00be005f
:100760003600f900004006003600f800809fbe0009
:10077000829fbe00849fbe00869fbe000000fa00dc
:10078000c608a90070002000811d07000080fa0043
:100790004f03be004f02be004f01be004f00be001f
:1007a0003600f900004006003600f800809fbe00c9
:1007b000829fbe00849fbe00869fbe000000fa009c
:1007c0002146800000102000008060000000e00052
:1007d00003003200c508a900c00020006c1d0700fe
:1007e0002146800000002800008060000000e0003a
:1007f00003003200c5e8a90080002000641d070046
:100800002146800000022000008060000000e0001f
:1008100003003200c4a8a900900020005c1d07005e
:1008200020468000700060000000e00003003200fd
:10083000c488a900a0002000551d0700ffff370055
:100840003600f800809fbe00829fbe00849fbe00dd
:10085000869fbe000000fa00308280000000e000a9
:10086000020032003082800000000100c0822200bd
:10087000904078000104a00001487800d083220055
:10088000104078008040e800d083220001487800c2
:10089000c083220011c0b300014878000068a9009d
:1008a0000080fa004f03be004f02be004f01be00a1
:1008b0004f00be003600f900004006000040da009c
:1008c0000000fe000a00fa0011002000b1bf9f00e6
:1008d000c0bf9f006a805700750707004fb8970098
:1008e0000080fa00000006000a00fa00e20f500043
:1008f00034003e0010428100e10f5000030032003e
:10090000e20f500011003a000c00370003222000d3
:100910000300e00001003a000040da002002e2009b
:10092000020035002822ef0021e2a8002342ab009c
:100930000d003a002342a8000b00370003232000db
:100940000300e00001003a000040da003002e2005b
:10095000020035003822ef0031e2a8003342ab003c
:1009600001003a003342a800820178000b003700f2
:100970003102fb00e10f500004003a002322ab00db
:10098000feff3a0024118800030037003322ab0039
:10099000feff3a00a41188008301e9000300e00093
:1009a000f3ff3a00e10f500003003a002302ab00ce
:1009b000feff32000b0037003302ab00feff3200b7
:1009c0000800370033002000b3bf9f00c0bf9f0066
:1009d000d1bf9f00e2bf9f006a8057003607070023
:1009e0006fb99700020078000080fa00000006004e
:1009f0000a00fa0051002000b1bf9f00c0bf9f0055
:100a00006a8057002e0707005fb897000080fa0041
:100a100000000600889fbe0080047800204281000c
:100a20000000e00004003a000e0007000084eb0024
:100a30000000e00008003500284281000900e000c5
:100a40000500320009004400060007000000e00035
:100a500001003d000084eb00080078004f04be0058
:100a600000000600800078000100e00003003a006a
:100a70000000200020428900000005000080eb00fb
:100a800002002000828f500002003e0021428900b7
:100a90000000eb0000000600000005008001780067
:100aa00002003700b15978000201e9000200e000bd
:100ab000fcff3a0000000600000178008201780087
:100ac0003204e000fdff3a0003017800b1417800f4
:100ad000035978000304e000fcff3a000000060020
:100ae00000017800b1417800035978000304e00068
:100af000fcff3a0000000600ee874700889fbe001a
:100b00008a9fbe008c9fbe008e1f7800f0b79f00aa
:100b10000106780082057800000478000805780056
:100b20000a047800b84678000d00fb008e0007002c
:100b30000000e000f9ff3a00d0c2b30080cf5600b9
:100b40000300320000c0e90080cf560002003a00e6
:100b50000a05e80001003700804678000b00e0003d
:100b600005003500e18f55000300320040022000ef
:100b7000808f5500060034006044b8000c00e0008f
:100b8000720032007fb09700000e780048003700f6
:100b90000b00e0000e003200f08f55001a003a0002
:100ba00000c3b3009a4f100017003a001a4090009b
:100bb00081c7b300814f50000300320081c5b300ec
:100bc000814f500010003a000a85e8000e003700ff
:100bd000ab00200000c3b3009a4f10000a003a0097
:100be0001a40900081c7b300814f500004003200ca
:100bf0008b00200081c5b300814f500002003a00f5
:100c00000a85e8000b0120000a0078000002780045
:100c10000400780001c3b300b0cf1000fbff320026
:100c2000040778006044b800b4b79f000d00370097
:100c3000416f220081405000c1ef9f006159b9000f
:100c40000800be00060707004fea97000401fb00fa
:100c5000cf91de00c8b79f00d9b79f0002044000c3
:100c6000838448008e0278003e00fb0085bf9f0011
:100c7000450007000b01780080007800406f2200db
:100c8000630207008fba97000000e000e8ff3a0017
:100c90003fb29700850f550007003a006044b80046
:100ca0000c00e00029003200ffb29700050e78002a
:100cb0006044b80025003700048252009071220081
:100cc0000b0040001000fb00000252001700330030
:100cd00011003a004fe997000200fb00cf80de00d0
:100ce0000000540081805c00800f5400818f5c0004
:100cf000090039006159b90085bf9f00c50607008a
:100d00008fba97004fb19700dfb19700820f500064
:100d1000838f58000500320020022000a041890086
:100d20000084eb008084eb0005003700d0c2b300e4
:100d300080cf560002003a0060041400e0841c00da
:100d40000c00e00001003200050e78000800be0033
:100d50004f0778004f06be004f05be004f04be008f
:100d6000ef00b100000006006900e100040035005a
:100d70006d00e100030034000002b1000100320008
:100d80000000050010000500800078001104b1008b
:100d9000030035009101b10001003c000050a000ab
:100da00000000600b04181000000e00001003200b8
:100db000000001004083220000000600889fbe0062
:100dc000800478000203be00010478006149b80085
:100dd000898fd2008381d200080278000600be000d
:100de00039060700088044004f04be0000000600da
:100df000881f7800020478000801780027ff0700a8
:100e0000080040004f047800000006000000fa00cf
:100e1000881f7800000478006a825700bfb99700e5
:100e200008017800e16d2000806f200016000700a7
:100e30000000e0000200350000044400004ceb001c
:100e40004f0478000080fa0000000600889fbe0072
:100e5000000478000203be008104780008027800d4
:100e600089017800120020000600be001704070068
:100e7000890f5000010032000004eb0008007800e8
:100e80004f04be00000006006800fa00889fbe0004
:100e90008a9fbe00800478000104780082057800f3
:100ea000030578008400780000f92f000f0040004f
:100eb00004040700d98f9f00fb8f9f000000eb0008
:100ec000a09f9f00e88f9f009a84fb000904fb000d
:100ed0008904ea00cf4cde0050022000800f54004d
:100ee0000d003200e18f54000b003a000901780038
:100ef0008a0078007f889700df899700030001004f
:100f0000f08f9f000000e000950032002f989700be
:100f10000000e800a09f9f00090545005002200046
:100f2000800f5400040032000800e000e6ff3a00a1
:100f30002f9897008b0037000000eb00809f9f00e8
:100f4000f0979f00e0979f00d0979f00c0979f0069
:100f5000b0979f0007003700618222000100500017
:100f600000004000a1812200808040004f9897003f
:100f700011007000c09f9f000a04780008057800e7
:100f8000ba4478008900fb0060822200aa010700b1
:100f90000000e000f0ff3a00a1c2b30081cf54008e
:100fa0000e003a008f8897000180e900808f9f0033
:100fb00010007800b09f9f000000e00005003d0099
:100fc0000000ea00b09f9f004f9897000020a0000b
:100fd000c09f9f000804e80010003700b09f9f00ea
:100fe000880078000000eb0005003700f3ff2700c1
:100ff000830f500002003200ea00b90000004100f7
:1010000001047800880078003101fb000203b10080
:10101000e90f5100f5ff3600b09f9f00e0c2b3001a
:10102000984f1000020032000080eb0019003700da
:10103000a0c2b300d84f100007003a008f88970075
:101040000180e900808f9f0010007800909f9f0032
:101050000804e800100037000000eb00909f9f009c
:101060008800780005003700f3ff2700830f500049
:1010700002003200ea00b9000000410001047800db
:10108000880078003101fb000203b100e90f510034
:10109000f5ff3600909f9f00984478008900fb0080
:1010a00020812200640107000000e00002003200fd
:1010b0000804e800010037008044eb00a97f9f008e
:1010c00080c6b30080cf540006003a0098cf1400c9
:1010d00010003a0066405000a07f9f000804e8001e
:1010e0000c003700c0c6b30080cf540009003a009e
:1010f00098cf140007003a0067404000d84f100016
:1011000002003a006e4050000100370010c7b300e3
:10111000a07f9f001801fb00c3fb2f008f814100bf
:1011200001f92f008f80400020f92f000f004000b0
:10113000150007000000e00009003a00c1fb2f0085
:101140008f80400020f92f000f004000830207002d
:101150000000e000020035000805e8005aff3700f3
:101160000080eb004f05be004f04be000080fa0077
:101170000000060003027800820178000101780077
:101180006172200040ff3700889fbe008a9fbe002a
:10119000e4c6b300844f5100ce00320010003c0082
:1011a0006b425200844f51001800320005003c0091
:1011b00054c2b300844f51000601320084c5b3000d
:1011c0000f00370044c6b300844f510015003200b1
:1011d00065424200844f510001013a00110037007e
:1011e00004c7b300844f5100ed0032005f003500aa
:1011f00065424200844f51005c003200634242006d
:10120000844f5100f6003a00580037001181e90080
:1012100082087800a00890008181410092497800fe
:10122000f5003700006a9000c5c6b300854f520034
:1012300008003a0091027800648252008408780025
:1012400094029000140278004fabde008603780011
:101250001600370015c7b300854f520003003a004f
:10126000110478006802540005003700a5c6b300d9
:10127000854f520008003a009104780068825400bb
:10128000840878009402900024039000b403900036
:1012900014027800050037001182e9008408780004
:1012a00014027800cfa2de00612bb9000498be00c2
:1012b0000690be008068900088c6b30088cf5000ba
:1012c0000d00320028c6b30088cf500004003a0059
:1012d0000402fb00cfa2de00612bb900080037003a
:1012e00048c7b30088cf5000030032006644440072
:1012f00088cf500004003a00cfa2de00612bb90075
:101300000498be000690be00100278009002900083
:1013100020039000b0039000a0089000e00f52005e
:10132000e08f5a00e00f5b00e08f5b0003003d00a0
:1013300001824100d5c2b3000a003700301290008c
:101340000418a3000300320001824100b5c2b300bb
:10135000040037000408a300590032000182410054
:1013600005c2b300054a780053003700006a9000b8
:10137000c5c6b300854f520009003a001105780038
:1013800064025500840878001404780094049000e6
:101390006055b8000802be000a03be001600370000
:1013a00015c7b300854f520003003a00910478003e
:1013b0006882540005003700a5c6b300854f52006f
:1013c00008003a001105780068025500840878008a
:1013d0009402900024039000b4039000140278005b
:1013e000050037001182e9008408780014027800b3
:1013f0008002eb006033b8000498be000690be0087
:101400008068900088c6b30088cf50000d0032007d
:1014100028c6b30088cf500004003a000482fb00c5
:101420008002eb006033b8000800370048c7b30003
:1014300088cf5000030032006644440088cf50003b
:1014400004003a008002eb006033b8000498be004c
:101450000690be00b01090000138a30018003200c2
:10146000100278009002900020039000b0039000da
:10147000e00f5200e08f5a00e00f5b00e08f5b004e
:101480000f00320081c7b300814f510003003200ca
:1014900081c5b300814f510009003a00a0089000b7
:1014a0000182410005c3b300054a78008100e800cd
:1014b00001824100024a78008100e800210898007a
:1014c000a00890008181410073009800824078005c
:1014d0003e00370080699000c4c6b3001181e90066
:1014e00084cf5100220032000a003c0064425200c6
:1014f00084cf51002500320004c2e80084cf51009f
:10150000130032006842520084cf51001e003a009e
:101510000a00370044c7b30084cf51001b003200db
:101520006642420084cf51001800320069425200e6
:1015300084cf510014003a0005003700820878007b
:101540009200780020609000804878002c003700de
:10155000820878009200780010129000cfa2de007e
:10156000612bb9008498be008690be00240037002d
:10157000820878009200780010119000cf91de0070
:101580008288be001e0037001181e90082087800c1
:101590009200780010109000800878001800370042
:1015a0001181e9008208780012027800cfa2de00e3
:1015b000612bb9000498be000690be00a008900000
:1015c000818141007300980081c7b30026000700a5
:1015d0000b003700a0089000818141000500370012
:1015e000a0089000818141000204e00001003a005f
:1015f00052c2b300824978008100e80021089800b7
:101600000000eb004f05be004f04be0000000600c6
:1016100003003700b0cf1000050032000201e900de
:10162000800178000200e000faff3a0000000500a7
:101630000300780000000600020037000304e00009
:10164000060032000001780002007800b041780006
:1016500081cf5100f9ff3a00010037000001eb0093
:101660000200780000000600fc874700889fbe004b
:101670008a9fbe008c9fbe008e1f780000067800f7
:1016800080c5b30080cf50000a0032007740400090
:1016900080cf50000a0032006940400080cf5000e7
:1016a0000b003200107e220080bf9f00ae002000a1
:1016b0000a003700027d220082bf9f00060037002b
:1016c000137e220083bf9f008e002000030037009e
:1016d000147e220084bf9f000e0120001c027800af
:1016e0009c0290002c039000bc0390000605be00f5
:1016f0000404be0040c6b30080cf50000300320097
:101700006540400080cf50000b003a00e00f5200cf
:10171000e08f5a00e00f5b00e08f5b0006003d00a9
:101720006000b8006011b8000404500085845800bf
:101730000605590087855900e80f5700040032005c
:1017400040002000f00f57003c003a000100370035
:1017500030002000e00f5400e08f5c00e00f5d00df
:10176000e08f5d0004003a008c1090008d01200095
:101770000100e000070032008e00e9008880600070
:101780008fba97008180420091407800f1ef9f006e
:101790007d012000800078008100e9000500330011
:1017a0008b05d1000a85d3008984d3000884d30037
:1017b000f9ff3700089ebe000a96be0013003700ee
:1017c0008d06e9008e00e900848060000fb9970063
:1017d000810041001141780083fd2f008d8141007f
:1017e00082f77900800178008301e9000500330069
:1017f0008783d1000683d3008582d3000482d3007f
:10180000f9ff3700049ebe000696be001c02780059
:101810009c0290002c039000bc039000e00f52004b
:10182000e08f5a00e00f5b00e08f5b009300340014
:101830000d00e000e2ff3c00900037000c689000d3
:1018400081c6b300814f50000b00320006003c00ff
:101850000004e00008003200e6c05000814f500054
:1018600052003a0004003700c1c6b300814f500057
:101870004e003a00230037000800e00004003a0060
:101880000c1090008d0120000000e00007003200e5
:10189000110009000e84d8000fba97000100420021
:1018a00010407800f0ef9f007d012000110009003a
:1018b0000e84d8000b003700110009000e04d80078
:1018c0008d06e9008e81b900020454008fb897009c
:1018d000088440009841780082fd2f000d014100ee
:1018e00083777900000478000800e00002003200ed
:1018f0000d00e000f0ff3c00cfc4de00614db900f8
:1019000027003700e00f5400e08f5c0004003a002d
:101910000c1090008d0120000000e0000800320053
:101920006171b9000800be00ca0307000fba970032
:101930008000420091407800f1ef9f007d0120007f
:101940006171b9000800be00b20307000c00370047
:101950006171b9000800be009f0307008d06e90011
:1019600080f1b900020454008fba97000884420045
:101970009841780082fd2f000d01410083777900a6
:101980000004be00e00f5000e08f5800020032005b
:101990000d00e000eeff3c004fcdde008a05780030
:1019a000089ebe000a96be0034003700e00f5400c7
:1019b000e08f5c00e00f5d00e08f5d0004003a0006
:1019c0000c1090008d0120000000e0000a003200a1
:1019d0006172b900612bb9000800be000a01be00a7
:1019e000470407000fba970080004200914078003a
:1019f000f1ef9f007d0120006172b900612bb900f9
:101a00000800be000a01be00360407000e003700c1
:101a10006172b900612bb9000800be000a01be0066
:101a20003b0407008d06e90080f2b900040454006d
:101a30008fba9700088442009842780084fd2f00f6
:101a40000d02420085777a00009ebe000296be001d
:101a50001c0478009c0490002c059000bc059000ac
:101a6000e00f5400e08f5c00e00f5d00e08f5d0050
:101a7000020034000d00e000e5ff3c00e80f5700d5
:101a800010003a003c1090000038a3000d00320016
:101a9000f78f560006003e0080fd2f000d0040002d
:101aa000ef40780000c3b30080cf50000500320043
:101ab00002c3b30071fd2f008d8040008d06e90048
:101ac00082f7780078811600420e98007c00900022
:101ad00083fd2f008f8141008d804100effb0700c7
:101ae0004c0890008c109000810f500006003d00c3
:101af00000805000300e98003c1090000040a10083
:101b0000301698000f0037000100e0000d003d0086
:101b1000bc109000f4806000f08f500009003a0083
:101b20002c119000ac089000810051003c099000fd
:101b300082805000008050004240a9000100340023
:101b4000300e98004f0778004f06be004f05be00cc
:101b50004f04be00cf01b100000006000400fa00ef
:101b6000889fbe008a9fbe008c1f7800000478000a
:101b700001067800a8149000280890008084540082
:101b800038089000808454004808900080845400f5
:101b900058089000808454006808900080845400a5
:101ba00078089000808454000002220090bf9f00bb
:101bb00000032300a0bf9f00381090000028a3005e
:101bc00015003a000900e000130034000905780010
:101bd0008a057800e20f5500010036002b00200036
:101be000c80190000b017800ee805700680090005b
:101bf00003000100600498000000e000aa00320029
:101c0000181090000b004000101498000b055500b0
:101c10004240a900eeff3c00280990000200e000cd
:101c20000c003400c80190008c007800680090001f
:101c300003000100600498008080eb000000e000d9
:101c40009a00320098109000280890000080400010
:101c500010149800380d90000a00e00011003400c4
:101c60008a057800e20f5500010036002b002000a5
:101c7000c80190000b017800ec80570068009000cc
:101c800003000100600498000000e00086003200bc
:101c9000181090000b004000101498000b05550020
:101ca000edff370008699000c808900050c6b300e7
:101cb000804f510008003a000100e0001500340098
:101cc0005802900008099000980990006800900060
:101cd00004000100070037000100e0000d0034009f
:101ce000c801900001017800f800900068009000a1
:101cf00003000100600498008080eb000000e00019
:101d00006a0032009810900048089000008040005f
:101d100010149800580d90000a00e00011003400e3
:101d20008a057800e20f5500010036002b002000e4
:101d3000c80190000b017800ec805700680090000b
:101d400003000100600498000000e000560032002b
:101d5000181090000b004000101498000b0555005f
:101d6000edff3700086990006808900051c6b30085
:101d7000814f51000d003a000000e0001c003400cb
:101d800078019000c8089000010141006111b8007d
:101d9000828fd2008381d2005802900080007800a8
:101da0006800900004000100090037000000e00016
:101db0000f00340078019000c808900081004100b5
:101dc000c801900000017800680090000300010045
:101dd000600498008080eb000000e00033003200d7
:101de000981090006808900000804000101498003f
:101df000780d90000a00e000110034008a05780098
:101e0000e20f5500010036002b002000c8019000b1
:101e10000b017800ec80570068009000030001007f
:101e2000600498000000e0001f00320018109000cd
:101e30000b004000101498000b055500edff370013
:101e4000381090008000eb000028a300170032003b
:101e50000900e0001500340009057800e28f540005
:101e6000010036002a002000c80190000a01780015
:101e7000ee805700680090000300010060049800a5
:101e80000000e00008003200181090000a00400036
:101e9000101498008a8454004240a900eeff3c00d0
:101ea0008000eb00010037008080eb00010078002b
:101eb0004f0678004f05be004f04be000080fa00b8
:101ec000000006000108780000000600e6874700d1
:101ed000889fbe008a9fbe008c9fbe008e1f780028
:101ee00082bf9f00040478008299b900f2b79f0076
:101ef0000200e000590032000fb997000200e00034
:101f0000570032000006be007fb79700c80090005f
:101f100068009000808f50000400390008007800ad
:101f2000920007000000e0003b0035000040200068
:101f3000180060000a0032008e017800a200200024
:101f40000c00be00090207000005be0000807500fd
:101f5000070032008c0455008904e80005003700b2
:101f60008e0478000a0020000b00200001003700da
:101f70008e04780048019000680090000200500034
:101f8000890f500003003100800478000a0020000f
:101f90000b0020006111b800828fd2008381d20033
:101fa000090278000c00be00c701070009075700ae
:101fb0004800900009004000400498000a85750020
:101fc00004003200080078002c0007000000e00048
:101fd00011003a000e00e0000f0032006148b80026
:101fe000808fd2008180d2000000780000f0a10034
:101ff0000c01d0008001d000030641004220a8005f
:1020000081864e004200a9004220ae004200a80096
:102010000c86d300bdff3700008020001800600050
:1020200002003200080078001400070000c0200001
:102030001800600002003200480090006004980020
:102040007fb197000e0751000fb9970011000900ea
:102050000287d80080017800010037008001eb0082
:10206000030078004f0778004f06be004f05be0002
:102070004f04be006f00b10000000600889fbe0044
:10208000000478000800e00010003a008004eb0033
:10209000090478008800d000406e220000804000d3
:1020a000100078000000e00004003200f3ff070099
:1020b0000000e00001003d008084eb000804e8001f
:1020c000e80f5400f3ff3a0025003700000022001b
:1020d000180060008004eb0021003200a80490008a
:1020e0000f00370009015100384090000000fb004c
:1020f00089007800fcf907000000e00007003c00c0
:10210000280090004004980060049800500c98004b
:102110001890a0008084eb001100370080844400f8
:1021200048019000828f5400eeff39002800900093
:10213000400498009800780002c0200002816000ee
:1021400001003a003800900001e8a30002003200cc
:102150006004980001003700500c98008004eb00e8
:10216000090078004f04be0000000600889fbe00f2
:102170008a1f780000047800c80090006801900071
:102180000000eb00828f50003c00390018007800fe
:102190002200290002016000e20f51000700320016
:1021a000012020000000e000010035000120240093
:1021b000008c70000080eb00300037000200260029
:1021c00002006000820f500009003a0038009000c1
:1021d000808f50000600390008007800a7ff070034
:1021e000800078000080eb000100e00023003a004e
:1021f0001805780000c020000000650018003a00b3
:10220000a80490006002200008004000808f540065
:1022100013003a0000202000f1000700200498007d
:102220000000e00005003a002904980049049800e5
:102230008904e80039049800080037000a60a0000b
:102240000a0c7800400498000120200080804000a3
:1022500031049800400c9800500c98000c000700c6
:102260002800900050049800380090006004980006
:1022700000002600180c70000000eb004f057800ed
:102280004f04be0000000600a01e210062003700bf
:10229000881f7800e88322001804e00003003a0059
:1022a000f9ff070020c0b300004c78004f0478000d
:1022b00000000600889fbe00000478000800780037
:1022c0006eff070080047800000420001800600002
:1022d00002003200280090005c0007000000eb00c4
:1022e00020049800384090000004e000050035000c
:1022f0000000fb0073f907000000e000010032005d
:102300008084eb00181090000000e000080032000c
:10231000b7f907000000e000010032008084eb0004
:1023200018109000490007000000eb0010149800fe
:102330000008200018006000150032000001eb00ca
:102340006000b8000202d000436e22000302420087
:10235000940f140005003a000000400081804800fe
:10236000008041000008eb000600370061004000db
:10237000e08048000201e800e80f5000e08f5800bc
:10238000f0ff3a0008007800300007000e00370028
:10239000000c780000c0eb00304498006002200080
:1023a0000800400020049800400498005004980061
:1023b000400c980060049800500c9800700498003d
:1023c00076004400000c9800090078004f04be001d
:1023d00000000600881f78000004eb006140b80090
:1023e000e2ff2f00f3ff2f001d010700226f2200e4
:1023f00080004100110078000000e0000100320080
:10240000acff07000804e800e80f5400f3ff3a00af
:102410004f04780000000600010020000100e000e9
:1024200009003200010080000100e00006003200d7
:102430008100e900010088008100d00002008000d6
:102440008280400080087800000006000000e00064
:102450002f003200c0017800e38f51002c003600bd
:102460000308a3002a003a00d14181000100e000e6
:1024700002003200810f500004003100110098006a
:10248000d0418900160037008200780011019000c9
:102490000200e00002003200800f5100faff390014
:1024a0001102780084824000850f50001800390026
:1024b000808f520003003a00830842000100780038
:1024c000070037000200e0000300320083014000f3
:1024d000830f51000e003900120098009000980000
:1024e000900090000100e00009003200100140005f
:1024f000828f500006003a00828322000009eb0020
:10250000100178001108410091009000110098001e
:1025100000000600889fbe0000047800c1418100d1
:102520000100e00002003200010078000d003700d9
:10253000d1418100a083220004003700910f540094
:10254000250036000180e800910090000100e000c5
:10255000faff3a0010003700920f54001e003600b8
:102560000280e800100178000200e000faff3a0063
:1025700011017800d1418100a083220004003700be
:10258000910f5400140036000180e8009100900083
:10259000828f5000faff3a0009428100888f540070
:1025a0000100310088047800090078003600070037
:1025b0000000e00004003a00888f5400050032005b
:1025c0008904d100f5ff3700091878009fff070044
:1025d000d2ff37000000eb004f04be0000000600f1
:1025e000881f7800630440000800a1008000eb0011
:1025f000800f540021003600e30f540001003e001c
:102600004800200008007800c2ff07008000eb00af
:102610000000e0001900320090007800910178007d
:1026200064815100880f51000300310011019000b6
:10263000020878000700370008814000020878008f
:102640009101900013019800100178001109140005
:1026500088087800100178000000eb000200e0001c
:1026600004003200920190000300e00001003200fb
:102670000280e800c04189008180e8000100780004
:102680004f04780000000600800078000000eb0096
:102690000100e0000500340001007800ddf80700cb
:1026a000e10f400001003a000000eb0000000600ce
:1026b00000c0da000000060000c0da0000000600da
:1026c00000c0da00000006003400f8003200f80014
:1026d0000203be00820270008502720002f0a600b2
:1026e0008301e800a301880000f0a6008100e80053
:1026f000910188001500b2000c00320010497800ea
:102700000402e900150032006101410002003900b5
:102710003420ec000200280061004000f7ff39007f
:102720003220ec0000002800f4ff37001009780088
:102730000482e90009003200620141000200390010
:102740003420ec000200280062004000f7ff39004e
:102750003220ec0000002800f4ff37003200f900be
:102760003400f9000601be00000006000300e0008e
:10277000070032009501800001d0fe001042780071
:1027800005d0fe000402fb00820f5200110032004f
:102790008301e9009501800001d0fe00104278001d
:1027a00005d0fe000404e0000800320000027800ba
:1027b0001000b00000026a004260af0000f0a0000c
:1027c0000482d2000180b000e8ff37000000200042
:1027d0000100200000000600839f68000100e00067
:1027e00002003d0060001000e08018000300e000df
:1027f00002003d0060011100e081190005000700a2
:102800004f00e00002003b0060001000e080180074
:10281000000006006022b800060220000000d00080
:102820008180d2000482d2008582d2000000a00004
:102830000202520083825a00030031000202420069
:1028400083824a000000a1000603e900f3ff3a007a
:1028500000000600efff07000400be0000000600b5
:10286000020ab900001bb9000200b8008100420052
:102870008100430000000600889fbe008a9fbe00c2
:1028800030044200b0844a0030054b0090854b0074
:102890006000b1000898be000a90be000440e1004c
:1028a00005c8e10006d0e10007d8e10002003100d0
:1028b000680040001008e8004f05be004f04be004d
:1028c00000000600889fbe008a9fbe0010047800aa
:1028d0009004900020059000b0059000041854006a
:1028e00005985c0006185d0007985d001100200047
:1028f0000440e10005c8e10006d0e10007d8e1008e
:10290000010039008000eb00108810004f05be0068
:102910004f04be00000006001200fa00889fbe00af
:102920008a9fbe008c9fbe00e0b79f00f1b79f005a
:1029300082bf9f0093bf9f000605be000404be0037
:102940000000eb00d0b79f00c0b79f00b0b79f005a
:10295000a0b79f0090b79f00000678005fb1970076
:10296000cfb09700820141003fb097000200e00025
:1029700004003d00370007007e805700beff0700bf
:1029800003003700330007007e805700cdff0700ab
:10299000dfb697000d00e0000c0035006fb2970025
:1029a000ffb297000fbb97009fbb9700100020005d
:1029b000010020006011b8000002720081827200e4
:1029c00002037300838373001b0007000c06e800fa
:1029d00001042000810f5600e0ff3a000d00e000e6
:1029e00004003d000802be000a03be007e805700be
:1029f000a1ff07005fa897000000e00005003a0073
:102a00001fb29700afb297003fb39700cfb39700c4
:102a1000090007006fb09700ffb097000fb997004b
:102a20009fb997004f06be004f05be004f04be0081
:102a30000080fa0000000600010007000000060008
:102a4000a4b79f00b5b79f00c6b79f00d7b79f0038
:102a5000000006004f09de0082817100b3b79f00bd
:102a60004f01de008180400082807000a1b79f008e
:102a70008fb097004f09de00000040000200700098
:102a800090b79f007fa897004f01de008180400033
:102a90008280700081b79f000d0007004f3ade0072
:102aa0000000400004007000f0af9f000800070025
:102ab0000402420085824a0006034b0087834b00d4
:102ac000dfff07000802be000a03be000000060088
:102ad0002fb29700bfb297004fb39700dfb39700b4
:102ae00000000600881f780018002000881f78006a
:102af00089ff07008f87e9004f0478000000060077
:102b0000801feb0084ff07008f87e90000000600ac
:102b1000889fbe008a9fbe00e00f5000e08f5800e3
:102b2000e00f5900e08f59000c003d006044b800f0
:102b30006055b8000000540081805c0002015d0017
:102b400083815d00180020001500070008003d008b
:102b5000180007000004eb00050037000004eb003c
:102b60000f00070002003d001200070018002000bf
:102b7000dcff07000800e000060032006022b80019
:102b80006033b8000000520081805a0002015b00ef
:102b900083815b004f05be004f04be0000000600ad
:102ba000e00f5200e08f5a00e00f5b00e08f5b0007
:102bb000000006006044b8006055b80004025400ec
:102bc00085825c0006035d0087835d0000000600cf
:102bd000889fbe008a9fbe008c1f7800e00f5000c7
:102be000e08f5800e00f5900e08f59000d003d00c4
:102bf0006044b8006055b8000000540081805c005b
:102c000002015d0083815d001c0020000820e100be
:102c100009a8e1000ab0e1000bb8e1000d003d0099
:102c2000080037000006eb00e00f5200e08f5a006a
:102c3000e00f5b00e08f5b0006003d006044b800e1
:102c40006055b8000402540085825c0006035d00f4
:102c500087835d00aaff07000c00e0000600320039
:102c60006022b8006033b8000000520081805a0032
:102c700002015b0083815b004f0678004f05be00b8
:082c80004f04be000000060035
:020000040000fa
:102c880044200000253000003364000020000000cc
:102c980045200000303200002053000020250000ad
:102ca80030330000640d00000a000000530d0000de
:102cb8000a00000020200000202000002020000042
:102cc80020200000202000002020000020200000fc
:102cd80020200000202000002020000020200000ec
:102ce80020200000202000002020000000450000d7
:102cf8002030000031200000532000002530000063
:102d0800336400000d0a0000000000004f2000009e
:102d18002530000033640000204f000020780000b8
:102d280078780000782c0000780d00000a00000078
:102d3800452000003032000020530000202500000c
:102d480030330000640d00000a0000004d20000030
:102d5800310d00000a000000462000000d0a0000a6
:102d680000570000203100000d0a00000057000045
:102d7800203300000d0a0000005700002032000038
:102d88000d0a0000000000004c0d00000a000000c1
:102d98004f4b00000d0a0000000000004c0d000021
:042da8000a0000001d
:020000040000fa
:102dac002200fa0040818000e20f5000b700320090
:102dbc00e20f500005003e000000e0000800320069
:102dcc00e10f50000a00320089023700e30f500077
:102ddc00db013200e40f50007a023200840237002b
:102dec0010002000408188002a70ef00800237001c
:102dfc00c082220010407800704060000004e000a7
:102e0c00760232000040eb00004f7800960037004d
:102e1c001e80fb00e1772200e600b9000080400034
:102e2c00640040008040eb00014878001e80fb00ed
:102e3c004300dd00812a2200008040009040780091
:102e4c0010c3b30080cf500008003a001e80fb0076
:102e5c00e600b90080007800207822000080400055
:102e6c00904078000104a000014878001e80fb000f
:102e7c004300dd000000e800812a220000804000b1
:102e8c009040780010c3b30080cf500008003a0087
:102e9c001e80fb00e600b90080007800207822003c
:102eac0000804000904078000114a0000148780098
:102ebc001e80fb004300dd000080e800812a220018
:102ecc00008040009040780010c3b30080cf5000c9
:102edc0008003a001e80fb00e600b9008000780074
:102eec002078220000804000904078000124a0004f
:102efc00014878001e80fb004300dd0063004000a9
:102f0c00812a2200008040009040780010c3b3005a
:102f1c0080cf500008003a001e80fb00e600b9008c
:102f2c0080007800207822000080400090407800db
:102f3c000134a000014878001e80fb004300dd0036
:102f4c0064004000812a22000080400090407800fc
:102f5c0010c3b30080cf500008003a001e80fb0065
:102f6c00e600b90080007800207822000080400044
:102f7c00904078000144a000014878001e80fb00be
:102f8c004300dd0065004000812a220000804000e3
:102f9c009040780010c3b30080cf500008003a0076
:102fac001e80fb00e600b90080007800207822002b
:102fbc0000804000904078000154a0000148780047
:102fcc001e80fb004300dd0066004000812a2200c9
:102fdc00008040009040780010c3b30080cf5000b8
:102fec0008003a001e80fb00e600b9008000780063
:102ffc002078220000804000904078000164a000fe
:10300c00014878001e80fb004300dd006700400093
:10301c00812a2200008040009040780010c3b30049
:10302c0080cf500008003a001e80fb00e600b9007b
:10303c0080007800207822000080400090407800ca
:10304c000174a000014878001e80fb00f17722007b
:10305c00e600b90000804000640040008040eb00b6
:10306c00014878001e4fe8001e407800e74f5000e2
:10307c0067ff3600251007002000200040818800e3
:10308c0010c0b3002ff0b700d9013700c082220066
:10309c0010407800704060000004e000d101320064
:1030ac000040eb00004f78001d0137001e80fb0034
:1030bc00e1772200e600b900008040006400400087
:1030cc008040eb00014878001e80fb004300dd00cf
:1030dc00812a2200008040009040780010c3b30089
:1030ec0080cf500008003a001e80fb00e600b900bb
:1030fc00800078002078220000804000904078000a
:10310c000104a000014878001e80fb004300dd0094
:10311c000000e800812a22000080400090407800e6
:10312c0010c3b30080cf500008003a001e80fb0093
:10313c00e600b90080007800207822000080400072
:10314c00904078000114a000014878001e80fb001c
:10315c004300dd000080e800812a2200008040004e
:10316c009040780010c3b30080cf500008003a00a4
:10317c001e80fb00e600b900800078002078220059
:10318c0000804000904078000124a00001487800a5
:10319c001e80fb004300dd0063004000812a2200fa
:1031ac00008040009040780010c3b30080cf5000e6
:1031bc0008003a001e80fb00e600b9008000780091
:1031cc002078220000804000904078000134a0005c
:1031dc00014878001e80fb004300dd0064004000c5
:1031ec00812a2200008040009040780010c3b30078
:1031fc0080cf500008003a001e80fb00e600b900aa
:10320c0080007800207822000080400090407800f8
:10321c000144a000014878001e80fb004300dd0043
:10322c0065004000812a2200008040009040780018
:10323c0010c3b30080cf500008003a001e80fb0082
:10324c00e600b90080007800207822000080400061
:10325c00904078000154a000014878001e80fb00cb
:10326c004300dd0066004000812a220000804000ff
:10327c009040780010c3b30080cf500008003a0093
:10328c001e80fb00e600b900800078002078220048
:10329c0000804000904078000164a0000148780054
:1032ac001e80fb004300dd0067004000812a2200e5
:1032bc00008040009040780010c3b30080cf5000d5
:1032cc0008003a001e80fb00e600b9008000780080
:1032dc002078220000804000904078000174a0000b
:1032ec00014878001e80fb00f1772200e600b9004f
:1032fc0000804000640040008040eb0001487800f2
:10330c001e80fb004300dd00812a2200008040006b
:10331c009040780010c3b30080cf500008003a00f2
:10332c001e80fb00e600b9008000780020782200a7
:10333c0000804000904090000104a00011409800d3
:10334c001e80fb004300dd000000e800812a220003
:10335c00008040009040780010c3b30080cf500034
:10336c0008003a001e80fb00e600b90080007800df
:10337c002078220000804000904090000114a000b2
:10338c00114098001e80fb004300dd000080e80027
:10339c00812a2200008040009040780010c3b300c6
:1033ac0080cf500008003a001e80fb00e600b900f8
:1033bc00800078002078220000804000904090002f
:1033cc000124a000114098001e80fb004300dd008a
:1033dc0063004000812a2200008040009040780069
:1033ec0010c3b30080cf500008003a001e80fb00d1
:1033fc00e600b900800078002078220000804000b0
:10340c00904090000134a000114098001e80fb00f9
:10341c004300dd0064004000812a2200008040004f
:10342c009040780010c3b30080cf500008003a00e1
:10343c001e80fb00e600b900800078002078220096
:10344c0000804000904090000144a0001140980082
:10345c001e80fb004300dd0065004000812a220035
:10346c00008040009040780010c3b30080cf500023
:10347c0008003a001e80fb00e600b90080007800ce
:10348c002078220000804000904090000154a00061
:10349c00114098001e80fb004300dd0066004000d8
:1034ac00812a2200008040009040780010c3b300b5
:1034bc0080cf500008003a001e80fb00e600b900e7
:1034cc00800078002078220000804000904090001e
:1034dc000164a000114098001e80fb004300dd0039
:1034ec0067004000812a2200008040009040780054
:1034fc0010c3b30080cf500008003a001e80fb00c0
:10350c00e600b9008000780020782200008040009e
:10351c00904090000174a000114098001e4fe800ec
:10352c001e407800e74f5000e0fe3600f70e070013
:10353c002a70ef003000200040818800ac0037007a
:10354c0030d0bf000004e0006c0032002ed0bf0071
:10355c000004e000410032002e70ef00605a22009f
:10356c001040780040479800705a220010407800b4
:10357c0050479800805a220010407800604798000d
:10358c00905a22001040780070479800b05a2200e0
:10359c0010407800004f98000040eb00104f98004e
:1035ac0064004700a20020008000eb004ff50700ec
:1035bc0010079800308180009e009000808f500092
:1035cc00070031002ad0bf008080fb00e07322008e
:1035dc0000804000904078000104a0000148780071
:1035ec002ad0bf000080fb000000e800801f78009c
:1035fc00a0682900801f78008047220000f6070091
:10360c00e4875700ce409000004822000148780023
:10361c00de4090001048220001487800ee409000f7
:10362c002048220001487800fe40900030482200db
:10363c00014878008e4890005048220001487800dc
:10364c0010c0b30039f0b7003070ef002ad0bf00c3
:10365c000040e8002af0b70054003700c082220076
:10366c0010407800644060000004e0004f0032001d
:10367c00608180000000e80060818800608180002b
:10368c00fe0f5000490036003070ef0002d0bf0032
:10369c000080fb000000e800801f7800c069290052
:1036ac00801f780080472200d5f50700e48757007b
:1036bc002ad0bf000080fb00812a2200008040003d
:1036cc0001c3b300014878002ad0bf0002f0b70054
:1036dc0010c0b300ed0207008c0e070010c0b30041
:1036ec0039f0b7002ad0bf000040e8002af0b7003c
:1036fc0020c0b30024f0b7002c003700c082220099
:10370c0010407800644060000004e0000a003a00b9
:10371c00370037002ad0bf000040e8002af0b7007d
:10372c00a102210091407800f0c3b30080cf50007b
:10373c000b003e0001003700000000002ad0bf0043
:10374c000080fb00812a220000804000904078001d
:10375c0000c3b30080cf5000eeff320001003700f1
:10376c0000000000a102210091407800f0c3b300da
:10377c0080cf5000020036002a70ef001c0037008a
:10378c002ad0bf0002f0b70010c0b300bf02070080
:10379c002ad0bf0057040700300020006605070040
:1037ac0010c0b30030f0b7002c30ef00160007004b
:1037bc000004e0000d003200400020004081880031
:1037cc000b0037002f70ef002830ef00b000200006
:1037dc00100b07000000000005003700000000007f
:1037ec00030037000000000001003700000000005b
:1037fc000080fa00000006000000fa002fd0bf0085
:10380c000080fa00000006000400fa00c0822200ca
:10381c0010407800704060000004e000ca013200e3
:10382c000040eb00004f7800a30137001e80fb0026
:10383c004300de00104798009e40780067c060008f
:10384c00204798009e80fb00e0732200008040001f
:10385c001080fb000000d100614060000004e0001b
:10386c006c0032009e80fb00e07322000080400060
:10387c00904078000124a000014878002e40900070
:10388c000080fb00e30f500030003200e30f5000cb
:10389c0007003c00e10f500018003200e10f50000f
:1038ac0020003c000000e0000a0032005900370004
:1038bc00e50f500039003200e50f50002d003500a7
:1038cc00e60f50003f003200e70f50004700320077
:1038dc00500037001e4090000080fb00e600b9004d
:1038ec0080007800207822000080400090409000fa
:1038fc000104a10011409800460037001e409000c2
:10390c000080fb00e600b9008000780020782200df
:10391c0000804000904090000114a10011409800dc
:10392c003c0037001e4090000080fb00e600b90010
:10393c0080007800207822000080400090409000a9
:10394c000124a10011409800320037001e40900065
:10395c000080fb00e600b90080007800207822008f
:10396c0000804000904090000134a100114098006c
:10397c00280037001e4090000080fb00e600b900d4
:10398c008000780020782200008040009040900059
:10399c000144a100114098001e0037001e40900009
:1039ac000080fb00e600b90080007800207822003f
:1039bc0000804000904090000154a10011409800fc
:1039cc00140037001e4090000080fb00e600b90098
:1039dc008000780020782200008040009040900009
:1039ec000164a100114098000a0037001e409000ad
:1039fc000080fb00e600b9008000780020782200ef
:103a0c0000804000904090000174a100114098008b
:103a1c00000000009e80fb00e0732200008040004c
:103a2c009040780061c060000004e0006c0032003f
:103a3c009e80fb00e07322000080400090407800e4
:103a4c000114a000014878002e4090000080fb007b
:103a5c00e30f500030003200e30f500007003c0031
:103a6c00e10f500018003200e10f500020003c0024
:103a7c000000e0000a00320059003700e50f50004a
:103a8c0039003200e50f50002d003500e60f5000d4
:103a9c003f003200e70f5000470032005000370063
:103aac001e4090000080fb00e600b900800078000a
:103abc002078220000804000904078000104a10092
:103acc0001487800460037001e4090000080fb0043
:103adc00e600b900800078002078220000804000c9
:103aec00904078000114a100014878003c00370098
:103afc001e4090000080fb00e600b90080007800ba
:103b0c002078220000804000904078000124a10021
:103b1c0001487800320037001e4090000080fb0006
:103b2c00e600b90080007800207822000080400078
:103b3c00904078000134a10001487800280037003b
:103b4c001e4090000080fb00e600b9008000780069
:103b5c002078220000804000904078000144a100b1
:103b6c00014878001e0037001e4090000080fb00ca
:103b7c00e600b90080007800207822000080400028
:103b8c00904078000154a1000148780014003700df
:103b9c001e4090000080fb00e600b9008000780019
:103bac002078220000804000904078000164a10041
:103bbc00014878000a0037001e4090000080fb008e
:103bcc00e600b900800078002078220000804000d8
:103bdc00904078000174a1000148780000000000ba
:103bec001e80fb00812a220000804000904078005b
:103bfc0010c3b30080cf5000ae0032002e409000b6
:103c0c000080fb00e30f50004b003200e30f50002c
:103c1c0007003c00e10f500021003200e10f500082
:103c2c0032003c000000e0000a003200a100370026
:103c3c00e50f500066003200e50f500051003500d2
:103c4c00e60f500075003200e70f5000860032007e
:103c5c00980037001e4090000080fb00e600b90081
:103c6c00800078002078220000804000904078008e
:103c7c000104a100014878001e4090000080fb0068
:103c8c00e600b90080007800207822000080400017
:103c9c00904090000104a10011409800850037006d
:103cac001e4090000080fb00e600b9008000780008
:103cbc002078220000804000904078000114a10080
:103ccc00014878001e4090000080fb00e600b9001f
:103cdc008000780020782200008040009040900006
:103cec000114a10011409800720037001e40900092
:103cfc000080fb00e600b9008000780020782200ec
:103d0c0000804000904078000124a1000148780018
:103d1c001e4090000080fb00e600b9008000780097
:103d2c002078220000804000904090000124a100e7
:103d3c00114098005f0037001e4090000080fb008f
:103d4c00e600b90080007800207822000080400056
:103d5c00904078000134a100014878001e4090008a
:103d6c000080fb00e600b90080007800207822007b
:103d7c0000804000904090000134a1001140980058
:103d8c004c0037001e4090000080fb00e600b9009c
:103d9c00800078002078220000804000904078005d
:103dac000144a100014878001e4090000080fb00f7
:103dbc00e600b900800078002078220000804000e6
:103dcc00904090000144a100114098003900370048
:103ddc001e4090000080fb00e600b90080007800d7
:103dec002078220000804000904078000154a1000f
:103dfc00014878001e4090000080fb00e600b900ee
:103e0c0080007800207822000080400090409000d4
:103e1c000154a10011409800260037001e4090006c
:103e2c000080fb00e600b9008000780020782200ba
:103e3c0000804000904078000164a10001487800a7
:103e4c001e4090000080fb00e600b9008000780066
:103e5c002078220000804000904090000164a10076
:103e6c0011409800130037001e4090000080fb00aa
:103e7c00e600b90080007800207822000080400025
:103e8c00904078000174a100014878001e40900019
:103e9c000080fb00e600b90080007800207822004a
:103eac0000804000904090000174a10011409800e7
:103ebc00000000001e4fe800f0c3b3009e407800e5
:103ecc0080cf500059fe36000040eb0010479800a0
:103edc000040eb00004f7800120037001e80fb0002
:103eec00812a2200008040009040780010c3b3006b
:103efc0080cf50000a003a009e80fb00e073220045
:103f0c00008040001080fb004200de006140600039
:103f1c000004e00002003a0010c0b3001047980003
:103f2c001e4fe800f0c3b3009e40780080cf5000d5
:103f3c00eaff36001e4090000004e00002003a0048
:103f4c0010c0b300010037000040eb000080fa0005
:103f5c00000006000200fa000040eb00004f780061
:103f6c00340037001e80fb00f1772200e600b90018
:103f7c00008040000080e8008040eb0001487800a1
:103f8c001e80fb00e1772200e600b90000804000b3
:103f9c00640040008040eb00014878001e80fb006c
:103fac00f1772200e600b900008040006400400078
:103fbc008040eb00014878001e80fb00e177220076
:103fcc00e600b900008040008040eb00014878001a
:103fdc001e80fb00f1772200e600b9000080400053
:103fec008040eb00014878009e80fb00e0732200cb
:103ffc0000804000904078000124a1000148780026
:10400c009e80fb00e073220000804000904078000e
:10401c000114a100014878009e80fb00e07322008f
:10402c0000804000904078000104a1000148780015
:10403c001e4fe8001e407800e74f5000c9ff3600c5
:10404c00320c07000080fa00000006000200fa00a3
:10405c00004f78001e417800e10221008248780070
:10406c000080fa00000006000200fa000040eb009d
:10407c00004f7800080037001e80fb00f17722000b
:10408c00e600b900008040000080e8008040eb00b2
:10409c00014878001e4fe8001e407800e74f5000a2
:1040ac00f5ff36000040eb00004f78007100370040
:1040bc001e80fb00812a2200008040009040780086
:1040cc0010c3b30080cf500069003a001e80fb0083
:1040dc004300de00104798001e80fb006700600064
:1040ec00e30f500030003200e30f500007003c009b
:1040fc00e10f500018003200e10f500020003c008e
:10410c000000e0000a00320059003700e50f5000b3
:10411c0039003200e50f50002d003500e60f50003d
:10412c003f003200e70f50004700320050003700cc
:10413c001e4090000080fb00e600b9008000780073
:10414c000078220000804000904090000174a00094
:10415c0011409800460037001e4090000080fb0084
:10416c00e600b90080007800007822000080400052
:10417c00904090000164a000114098003c00370072
:10418c001e4090000080fb00e600b9008000780023
:10419c000078220000804000904090000154a00064
:1041ac0011409800320037001e4090000080fb0048
:1041bc00e600b90080007800007822000080400002
:1041cc00904090000144a000114098002800370056
:1041dc001e4090000080fb00e600b90080007800d3
:1041ec000078220000804000904090000134a00034
:1041fc00114098001e0037001e4090000080fb000c
:10420c00e600b900800078000078220000804000b1
:10421c00904090000124a000114098001400370039
:10422c001e4090000080fb00e600b9008000780082
:10423c000078220000804000904090000114a00003
:10424c00114098000a0037001e4090000080fb00cf
:10425c00e600b90080007800007822000080400061
:10426c00904090000104a000114098000000000054
:10427c001e4fe800f0c3b3009e40780080cf500082
:10428c008bff36000080fa00000006000600fa00e2
:10429c00404798000040eb00004f78000d003700bd
:1042ac001e80fb00e1772200e600b9000080400090
:1042bc008040eb00014878001e80fb00f177220063
:1042cc00e600b900008040008040eb000148780017
:1042dc001e4fe8001e407800e74f5000f0ff3600fc
:1042ec000040eb00004f7800710037001e80fb008f
:1042fc00812a2200008040009040780010c3b30057
:10430c0080cf500069003a001e80fb004300de00a5
:10431c00104798001e80fb0067006000e30f500000
:10432c0030003200e30f500007003c00e10f50005a
:10433c0018003200e10f500020003c000000e000ab
:10434c000a00320059003700e50f500039003200e6
:10435c00e50f50002d003500e60f50003f003200f5
:10436c00e70f500047003200500037001e4090000d
:10437c000080fb00e600b90080007800e0772200a6
:10438c0000804000904078000114a00001487800a3
:10439c00460037001e4090000080fb00e600b9008c
:1043ac0080007800e0772200008040009040780088
:1043bc000134a000014878003c0037001e409000fa
:1043cc000080fb00e600b90080007800e077220056
:1043dc0000804000904078000154a0000148780013
:1043ec00320037001e4090000080fb00e600b90050
:1043fc0080007800e0772200008040009040780038
:10440c000174a00001487800280037001e4090007d
:10441c000080fb00e600b90080007800e077220005
:10442c0000804000904090000114a00011409800c2
:10443c001e0037001e4090000080fb00e600b90013
:10444c0080007800e07722000080400090409000cf
:10445c000134a00011409800140037001e40900059
:10446c000080fb00e600b90080007800e0772200b5
:10447c0000804000904090000154a0001140980032
:10448c000a0037001e4090000080fb00e600b900d7
:10449c0080007800e077220000804000904090007f
:1044ac000174a00011409800000000001e4fe800ad
:1044bc00f0c3b3009e40780080cf50008bff3600d5
:1044cc0002d0bf000080fb004300de0010479800c4
:1044dc0002d0bf0067406000204798004e4090001b
:1044ec000004e000660032002e4090000080fb00cb
:1044fc00e30f500030003200e30f500007003c0087
:10450c00e10f500018003200e10f500020003c0079
:10451c000000e0000a00320059003700e50f50009f
:10452c0039003200e50f50002d003500e60f500029
:10453c003f003200e70f50004700320050003700b8
:10454c001e4090000080fb00e600b900800078005f
:10455c00e077220000804000904078000104a00029
:10456c0001487800460037001e4090000080fb0098
:10457c00e600b90080007800e0772200008040005f
:10458c00904078000124a000014878003c003700de
:10459c001e4090000080fb00e600b900800078000f
:1045ac00e077220000804000904078000144a00099
:1045bc0001487800320037001e4090000080fb005c
:1045cc00e600b90080007800e0772200008040000f
:1045dc00904078000164a000014878002800370062
:1045ec001e4090000080fb00e600b90080007800bf
:1045fc00e077220000804000904090000104a00071
:10460c00114098001e0037001e4090000080fb00f7
:10461c00e600b90080007800e077220000804000be
:10462c00904090000124a000114098001400370025
:10463c001e4090000080fb00e600b900800078006e
:10464c00e077220000804000904090000144a000e0
:10465c00114098000a0037001e4090000080fb00bb
:10466c00e600b90080007800e0772200008040006e
:10467c00904090000164a0001140980000000000e0
:10468c000080fa00000006000200fa00670707002d
:10469c00000f78001e007800e50f500005003e006a
:1046ac00e20f50001a003100e10f500005003200fb
:1046bc003b00370067005000e30f500038003e000d
:1046cc0025003700c0822200104078007040600046
:1046dc000004e000070032004ad0bf000040e800b0
:1046ec004af0b7004ad0bf00f44f5000010036002a
:1046fc004a70ef004ad0bf000004e00002003a000c
:10470c00198ea9002b003700198ea800290037003c
:10471c00c0822200104078000042b2000004e00089
:10472c0021003200c07080004c00de00614060004f
:10473c000004a200614060000080fb00610060008a
:10474c004c00dd00c170800001c0a10001007000b0
:10475c00c070880017003700c0822200104078001b
:10476c00704060000004e00011003200c070800056
:10477c004c00de00614060000004a200614060005b
:10478c000080fb00610060004c00dd00c170800007
:10479c0001c0a10001007000c07088000500370046
:1047ac00198ea9000300370000000000010037003b
:1047bc000000000024d0bf000080fb00e10f50007f
:1047cc000c003200e10f500003003c000000e00040
:1047dc00060032003d003700e20f50001700320097
:1047ec00e30f5000270032003800370019aea90043
:1047fc003e003700c0822200104078000044b20016
:10480c000004e00034003200c07080004d00de0077
:10481c00614060000004a200614060000080fb0069
:10482c00610060004d00dd00c170800001d0a1006e
:10483c0001007000c07088002c003700c08222007c
:10484c00104078000042b2000004e0002400320066
:10485c00c07080004d00de00614060000004a200ca
:10486c00614060000080fb00610060004d00dd00d5
:10487c00c170800001d0a10001007000c0708800e0
:10488c001a003700c082220010407800704060008f
:10489c000004e00014003200c07080004d00de0007
:1048ac00614060000004a200614060000080fb00d9
:1048bc00610060004d00dd00c170800001d0a100de
:1048cc0001007000c07088000800370019aea80005
:1048dc000000000005003700000000000300370056
:1048ec000000000001003700000000000080fa000a
:1048fc00000006000600fa00404798004e40900069
:10490c000000fb000000e00001003d0067004000db
:10491c004380de0000407800104798004e40900025
:10492c008000fb0070002800008060000000e000a8
:10493c0004003d000000e90081ff2f0000807000a2
:10494c000000e80000407800204798000040eb0091
:10495c00004f7800190037001e80fb00e600b900fc
:10496c0080007800007822000080400090407800a1
:10497c007140b300014878001e80fb00e600b900ce
:10498c008000780000782200008040009040780081
:10499c000134a000014878001e80fb00e600b9003d
:1049ac008000780000782200008040009040780061
:1049bc000144a100014878001e4fe8001e40780019
:1049cc00e74f5000e4ff36001e4090000080fb00d3
:1049dc00ae40900081c0ea00e7c06000e601b9007b
:1049ec000078220000004100e7c060009041780090
:1049fc0082cfb30002c16100814071000148780090
:104a0c001e4090000080fb00e600b900800078009a
:104a1c000078220000804000904078000134a10012
:104a2c00014878001e4090000080fb00e600b900b1
:104a3c0080007800007822000080400090407800d0
:104a4c000144a00001487800b00907000080fa007a
:104a5c00000006000000fa003e70ef004070ef000e
:104a6c000080fa00000006000200fa006a0b070042
:104a7c000004e000520032004c0b07001047980075
:104a8c001e409000ea4f500035003a0040d0bf0065
:104a9c000080fb0001542200008040009e409000ea
:104aac000148780040d0bf000080fb000000e80007
:104abc0001542200008040008040eb000148780047
:104acc0000542200104078000004e00016003a0068
:104adc000040eb00004f78000a0037001e80fb00fe
:104aec009e80fb008100e8000254220081004100fe
:104afc0091407800025422000000410001487800e7
:104b0c001e4fe80040d0bf009e40780080cf500080
:104b1c00f2ff39001e80fb0001542200008040008f
:104b2c008040eb000148780040d0bf000080fb00c3
:104b3c000000e80001542200008040008040eb009f
:104b4c000148780001542200405a2200e1ef07008e
:104b5c0010c0b3003ef0b7004070ef0018003700f3
:104b6c001e4090000004e0001500320040d0bf0051
:104b7c000080fb0001542200008040009e40900009
:104b8c000148780040d0bf000040e80040f0b7007a
:104b9c00010421009140780030c6b30080cf500052
:104bac00010036004070ef0040d0bf000080fb00d9
:104bbc0001542200008040008040eb000148780046
:104bcc000080fa00000006000200fa003ed0bf0090
:104bdc000004e00030003200405a220010407800ff
:104bec000080fb00f1042000810f50001400320003
:104bfc00f1042000810f50000a003c0051022000fb
:104c0c00810f50001d003200d1042000810f500094
:104c1c000800320031022000810f500012003200d7
:104c2c001b00370041052000810f50001500320099
:104c3c001700370010c0b3003e0207001400370005
:104c4c00c05a220010407800ed4f500003003a008b
:104c5c0010c0b300fdfc07000d00370010c0b300fe
:104c6c00340207000a003700b05a220010407800c6
:104c7c00ed4f500005003200050037000000000029
:104c8c0003003700000000000100370000000000a6
:104c9c003e70ef00020037000040eb00004f780040
:104cac000080fa00000006000000fa003fd0bf00b0
:104cbc000004e0001c00320041d0bf000004e00002
:104ccc00020032004170ef004270ef00de0a070074
:104cdc000004e0001600320042d0bf000080fb0050
:104cec00816022000080400010407800be0a07005e
:104cfc0042d0bf000080fb00816022000080400099
:104d0c0010407800ea4f500003003a003f70ef006b
:104d1c004270ef000600370042d0bf000040e800b0
:104d2c0042f0b7000200370010c0b30041f0b700ea
:104d3c000080fa00000006000200fa00000f780064
:104d4c001e007800e30f500046003200e30f5000c5
:104d5c0005003e00e10f50001e003200e10f500034
:104d6c002e003e0009003700e50f500055003200c0
:104d7c00e50f500047003900e60f50006300320089
:104d8c00e70f50007300320084003700806022006f
:104d9c00d1c4b300014878009060220001c2b30076
:104dac0001487800a060220001c3b30001487800dc
:104dbc00b0602200d1c0b30001487800c06022006e
:104dcc00a1c0b3000148780010c0b3003ff0b70099
:104ddc007200370080602200d1c4b3000148780013
:104dec009060220001c2b30001487800a06022004c
:104dfc0011c3b30001487800b0602200d1c0b300e9
:104e0c0001487800c0602200a1c0b30001487800be
:104e1c0010c0b3003ff0b700600037008060220084
:104e2c00d1c4b300014878009060220001c2b300e5
:104e3c0001487800a060220021c3b300014878002b
:104e4c00b0602200d1c0b30001487800c0602200dd
:104e5c00a1c0b3000148780010c0b3003ff0b70008
:104e6c004e00370080602200f1c4b3000148780086
:104e7c0090602200d1c0b30001487800a0602200ed
:104e8c00a1c0b3000148780010c0b3003ff0b700d8
:104e9c00420037008060220011c4b3000148780042
:104eac0090602200d1c0b30001487800a0602200bd
:104ebc00a1c0b3000148780010c0b3003ff0b700a8
:104ecc00360037008060220031c2b3000148780000
:104edc009060220001c2b30001487800b06022004b
:104eec0001c3b30001487800c0602200d1c0b300f8
:104efc0001487800d0602200a1c0b30001487800be
:104f0c0010c0b3003ff0b7002400370080602200cf
:104f1c0031c2b300014878009060220001c2b30096
:104f2c0001487800a060220011c3b300014878004a
:104f3c00b0602200d1c0b30001487800c0602200ec
:104f4c00a1c0b3000148780010c0b3003ff0b70017
:104f5c00120037008060220031c2b3000148780093
:104f6c009060220001c2b30001487800a0602200ca
:104f7c0021c3b30001487800b0602200d1c0b30057
:104f8c0001487800c0602200a1c0b300014878003d
:104f9c0010c0b3003ff0b700000000000080fa0022
:104fac00000006000200fa004070ef000000eb0069
:104fbc00000f780005003700005422001e0040004e
:104fcc008040eb00014878001e0fe800e003200051
:104fdc009e007800808f5000f7ff34000080fa00ac
:104fec0000000600c800fa00c082220010407800c1
:104ffc000044b2000004e0000b00320003d0bf00fc
:10500c000040e90003f0b70003d0bf000004e0004b
:10501c0005003a0020d0bf0003f0b70010c0b30069
:10502c0008f0b7000270ef0008d0bf000004e000e9
:10503c008400320009d0bf000004e0004c003200b4
:10504c000ad0bf000004e0002400320039d0bf00b9
:10505c000004a2000004e000200032000a70ef00ff
:10506c0002d0bf000080fb000000e800801f780029
:10507c0040642900801f78000e00780060ef070064
:10508c00e4875700a05a2200c1c2b300014878003f
:10509c00205b2200c1c2b30001487800105c2200e2
:1050ac00c1c2b30001487800415a22000e007800ba
:1050bc007eee07008e0078008047220085ee070008
:1050cc0010c0b30039f0b7000970ef0002d0bf0078
:1050dc000040e80002f0b7005a003700c0822200fe
:1050ec0010407800644060000004e0005200320080
:1050fc00808080000000e800808088008080800034
:10510c00fe0f50004e0036000970ef0002d0bf00b9
:10511c000080fb00801f7800c0642900801f78008d
:10512c008047220036ef0700e487570002d0bf000b
:10513c000080fb00812a22000080400001c3b300e4
:10514c000148780010c0b30050fc0700ef070700bf
:10515c0010c0b30039f0b70002d0bf000040e80027
:10516c0002f0b70020c0b30024f0b70035003700c0
:10517c00c082220010407800644060000004e0000f
:10518c000a003a002f00370002d0bf000040e800b0
:10519c0002f0b7002100210091407800f0c3b30069
:1051ac0080cf50000b003e000100370000000000d3
:1051bc0002d0bf000080fb00812a2200008040004a
:1051cc009040780000c3b30080cf5000eeff320057
:1051dc000100370000000000210021009140780000
:1051ec00f0c3b30080cf5000090036000270ef000e
:1051fc000870ef0042002000a165290080472200c2
:10520c0023ee070010c0b30039f0b7000d003700d3
:10521c0010c0b3001dfc070002d0bf00b5fd070095
:10522c0040002000c4fe070010c0b30009f0b70016
:10523c001030ef00030037000000000001003700c1
:10524c00000000000080fa00000006000200fa00d6
:10525c000040eb00004f7800220037001e80fb005e
:10526c00f1772200e600b900008040000080e800e1
:10527c008040eb00014878001e80fb00e1772200a3
:10528c00e600b90000804000640040008040eb0064
:10529c00014878001e80fb00f1772200e600b9007f
:1052ac0000804000640040008040eb000148780022
:1052bc001e80fb00e1772200e600b9000080400070
:1052cc008040eb00014878001e80fb00f177220043
:1052dc00e600b900008040008040eb0001487800f7
:1052ec001e4fe8001e407800e74f5000dbff3600f1
:1052fc00860707000270ef000080fa00000006002d
:10530c000200fa000030ef000270ef0020d0bf0066
:10531c0003f0b7000430ef000040eb00004f7800c2
:10532c000a0037009e80fb00f00220008088b90044
:10533c0080007800c004210000804000d2012000d1
:10534c00e1652900d2ed07001e4fe80030c6b3001e
:10535c009e40780080cf5000f2ff360042fb0700e1
:10536c000040eb00c9fb0700680707000a70ef005c
:10537c000080fa00000006000000fa0008d0bf0010
:10538c000080fa00000006000000fa000bd0bf00fd
:10539c000004e000340032000ad0bf000004e0003a
:1053ac00070032000a70ef000b70ef000c30ef00ba
:1053bc0002d0bf000040e80002f0b7005a003700ee
:1053cc00c082220010407800644060000004e000bd
:1053dc0055003200708080000000e800708088006a
:1053ec0070808000fe0f50004f0034006080800001
:1053fc000000e8006080880060808000e20f5000b0
:10540c001400340002d0bf000080fb00812a22006f
:10541c000080400001c3b3000148780002d0bf00f7
:10542c000080fb00801f7800b0672900801f780087
:10543c008047220072ee0700e487570010c0b300cb
:10544c0039f0b7000c30ef0002d0bf000040e8008c
:10545c0002f0b7000b70ef000a70ef0010c0b30041
:10546c0024f0b7003000370039d0bf000004e00052
:10547c000c0032000040eb002c0037000c30ef0029
:10548c0002d0bf000040e80002f0b700210021006c
:10549c0091407800f0c3b30080cf50000b003e0069
:1054ac00010037000000000002d0bf000080fb00ac
